:03000000020030CB
:10003000758920758DFD759850D28E11CD74801103
:10004000BF90010011E43098FDC298E599B402F622
:10005000780A79403098FDC298E599F709D8F57487
:10006000C011BF780A7940E711C609D8FA80D7D203
:10007000A1D2A0C2A1C2A022C2A1D2A0D2A1227F9D
:10008000083392A1D2A0C2A0DFF7D2A1D2A0C2A011
:1000900022C0E0116F744E117FD0E0117F117822E1
:1000A0004404119154FB119122C0E04A440811A06C
:1000B000D0E022FB54F011A9EBC454F011A9227A2C
:1000C0000011B311EE227A0111B311EE2211F7746F
:1000D0003311B3743211B3742811BF740C11BF748F
:1000E0000111BF22E493600511C6A380F7227E0AA6
:1000F0007F64DFFEDEFA227E327F64DFFEDEFA22DC
:0F010000517565742074686520524649443A0071
:00000001FF
